{
  "contractName": "TraderCat",
  "abi": [
    {
      "inputs": [
        {
          "internalType": "address",
          "name": "initialOwner",
          "type": "address"
        }
      ],
      "stateMutability": "nonpayable",
      "type": "constructor"
    },
    {
      "inputs": [
        {
          "internalType": "address",
          "name": "sender",
          "type": "address"
        },
        {
          "internalType": "uint256",
          "name": "tokenId",
          "type": "uint256"
        },
        {
          "internalType": "address",
          "name": "owner",
          "type": "address"
        }
      ],
      "name": "ERC721IncorrectOwner",
      "type": "error"
    },
    {
      "inputs": [
        {
          "internalType": "address",
          "name": "operator",
          "type": "address"
        },
        {
          "internalType": "uint256",
          "name": "tokenId",
          "type": "uint256"
        }
      ],
      "name": "ERC721InsufficientApproval",
      "type": "error"
    },
    {
      "inputs": [
        {
          "internalType": "address",
          "name": "approver",
          "type": "address"
        }
      ],
      "name": "ERC721InvalidApprover",
      "type": "error"
    },
    {
      "inputs": [
        {
          "internalType": "address",
          "name": "operator",
          "type": "address"
        }
      ],
      "name": "ERC721InvalidOperator",
      "type": "error"
    },
    {
      "inputs": [
        {
          "internalType": "address",
          "name": "owner",
          "type": "address"
        }
      ],
      "name": "ERC721InvalidOwner",
      "type": "error"
    },
    {
      "inputs": [
        {
          "internalType": "address",
          "name": "receiver",
          "type": "address"
        }
      ],
      "name": "ERC721InvalidReceiver",
      "type": "error"
    },
    {
      "inputs": [
        {
          "internalType": "address",
          "name": "sender",
          "type": "address"
        }
      ],
      "name": "ERC721InvalidSender",
      "type": "error"
    },
    {
      "inputs": [
        {
          "internalType": "uint256",
          "name": "tokenId",
          "type": "uint256"
        }
      ],
      "name": "ERC721NonexistentToken",
      "type": "error"
    },
    {
      "inputs": [
        {
          "internalType": "address",
          "name": "owner",
          "type": "address"
        }
      ],
      "name": "OwnableInvalidOwner",
      "type": "error"
    },
    {
      "inputs": [
        {
          "internalType": "address",
          "name": "account",
          "type": "address"
        }
      ],
      "name": "OwnableUnauthorizedAccount",
      "type": "error"
    },
    {
      "anonymous": false,
      "inputs": [
        {
          "indexed": true,
          "internalType": "address",
          "name": "owner",
          "type": "address"
        },
        {
          "indexed": true,
          "internalType": "address",
          "name": "approved",
          "type": "address"
        },
        {
          "indexed": true,
          "internalType": "uint256",
          "name": "tokenId",
          "type": "uint256"
        }
      ],
      "name": "Approval",
      "type": "event"
    },
    {
      "anonymous": false,
      "inputs": [
        {
          "indexed": true,
          "internalType": "address",
          "name": "owner",
          "type": "address"
        },
        {
          "indexed": true,
          "internalType": "address",
          "name": "operator",
          "type": "address"
        },
        {
          "indexed": false,
          "internalType": "bool",
          "name": "approved",
          "type": "bool"
        }
      ],
      "name": "ApprovalForAll",
      "type": "event"
    },
    {
      "anonymous": false,
      "inputs": [
        {
          "indexed": true,
          "internalType": "address",
          "name": "previousOwner",
          "type": "address"
        },
        {
          "indexed": true,
          "internalType": "address",
          "name": "newOwner",
          "type": "address"
        }
      ],
      "name": "OwnershipTransferred",
      "type": "event"
    },
    {
      "anonymous": false,
      "inputs": [
        {
          "indexed": true,
          "internalType": "address",
          "name": "from",
          "type": "address"
        },
        {
          "indexed": true,
          "internalType": "address",
          "name": "to",
          "type": "address"
        },
        {
          "indexed": true,
          "internalType": "uint256",
          "name": "tokenId",
          "type": "uint256"
        }
      ],
      "name": "Transfer",
      "type": "event"
    },
    {
      "inputs": [
        {
          "internalType": "address",
          "name": "to",
          "type": "address"
        },
        {
          "internalType": "uint256",
          "name": "tokenId",
          "type": "uint256"
        }
      ],
      "name": "approve",
      "outputs": [],
      "stateMutability": "nonpayable",
      "type": "function"
    },
    {
      "inputs": [
        {
          "internalType": "address",
          "name": "owner",
          "type": "address"
        }
      ],
      "name": "balanceOf",
      "outputs": [
        {
          "internalType": "uint256",
          "name": "",
          "type": "uint256"
        }
      ],
      "stateMutability": "view",
      "type": "function",
      "constant": true
    },
    {
      "inputs": [
        {
          "internalType": "uint256",
          "name": "tokenId",
          "type": "uint256"
        }
      ],
      "name": "getApproved",
      "outputs": [
        {
          "internalType": "address",
          "name": "",
          "type": "address"
        }
      ],
      "stateMutability": "view",
      "type": "function",
      "constant": true
    },
    {
      "inputs": [
        {
          "internalType": "address",
          "name": "owner",
          "type": "address"
        },
        {
          "internalType": "address",
          "name": "operator",
          "type": "address"
        }
      ],
      "name": "isApprovedForAll",
      "outputs": [
        {
          "internalType": "bool",
          "name": "",
          "type": "bool"
        }
      ],
      "stateMutability": "view",
      "type": "function",
      "constant": true
    },
    {
      "inputs": [],
      "name": "name",
      "outputs": [
        {
          "internalType": "string",
          "name": "",
          "type": "string"
        }
      ],
      "stateMutability": "view",
      "type": "function",
      "constant": true
    },
    {
      "inputs": [],
      "name": "owner",
      "outputs": [
        {
          "internalType": "address",
          "name": "",
          "type": "address"
        }
      ],
      "stateMutability": "view",
      "type": "function",
      "constant": true
    },
    {
      "inputs": [
        {
          "internalType": "uint256",
          "name": "tokenId",
          "type": "uint256"
        }
      ],
      "name": "ownerOf",
      "outputs": [
        {
          "internalType": "address",
          "name": "",
          "type": "address"
        }
      ],
      "stateMutability": "view",
      "type": "function",
      "constant": true
    },
    {
      "inputs": [],
      "name": "renounceOwnership",
      "outputs": [],
      "stateMutability": "nonpayable",
      "type": "function"
    },
    {
      "inputs": [
        {
          "internalType": "address",
          "name": "from",
          "type": "address"
        },
        {
          "internalType": "address",
          "name": "to",
          "type": "address"
        },
        {
          "internalType": "uint256",
          "name": "tokenId",
          "type": "uint256"
        }
      ],
      "name": "safeTransferFrom",
      "outputs": [],
      "stateMutability": "nonpayable",
      "type": "function"
    },
    {
      "inputs": [
        {
          "internalType": "address",
          "name": "from",
          "type": "address"
        },
        {
          "internalType": "address",
          "name": "to",
          "type": "address"
        },
        {
          "internalType": "uint256",
          "name": "tokenId",
          "type": "uint256"
        },
        {
          "internalType": "bytes",
          "name": "data",
          "type": "bytes"
        }
      ],
      "name": "safeTransferFrom",
      "outputs": [],
      "stateMutability": "nonpayable",
      "type": "function"
    },
    {
      "inputs": [
        {
          "internalType": "address",
          "name": "operator",
          "type": "address"
        },
        {
          "internalType": "bool",
          "name": "approved",
          "type": "bool"
        }
      ],
      "name": "setApprovalForAll",
      "outputs": [],
      "stateMutability": "nonpayable",
      "type": "function"
    },
    {
      "inputs": [
        {
          "internalType": "bytes4",
          "name": "interfaceId",
          "type": "bytes4"
        }
      ],
      "name": "supportsInterface",
      "outputs": [
        {
          "internalType": "bool",
          "name": "",
          "type": "bool"
        }
      ],
      "stateMutability": "view",
      "type": "function",
      "constant": true
    },
    {
      "inputs": [],
      "name": "symbol",
      "outputs": [
        {
          "internalType": "string",
          "name": "",
          "type": "string"
        }
      ],
      "stateMutability": "view",
      "type": "function",
      "constant": true
    },
    {
      "inputs": [
        {
          "internalType": "address",
          "name": "from",
          "type": "address"
        },
        {
          "internalType": "address",
          "name": "to",
          "type": "address"
        },
        {
          "internalType": "uint256",
          "name": "tokenId",
          "type": "uint256"
        }
      ],
      "name": "transferFrom",
      "outputs": [],
      "stateMutability": "nonpayable",
      "type": "function"
    },
    {
      "inputs": [
        {
          "internalType": "address",
          "name": "newOwner",
          "type": "address"
        }
      ],
      "name": "transferOwnership",
      "outputs": [],
      "stateMutability": "nonpayable",
      "type": "function"
    },
    {
      "inputs": [
        {
          "internalType": "address",
          "name": "to",
          "type": "address"
        }
      ],
      "name": "safeMint",
      "outputs": [
        {
          "internalType": "uint256",
          "name": "",
          "type": "uint256"
        }
      ],
      "stateMutability": "nonpayable",
      "type": "function"
    },
    {
      "inputs": [
        {
          "internalType": "uint256",
          "name": "tokenId",
          "type": "uint256"
        }
      ],
      "name": "tokenURI",
      "outputs": [
        {
          "internalType": "string",
          "name": "",
          "type": "string"
        }
      ],
      "stateMutability": "pure",
      "type": "function",
      "constant": true
    }
  ],
  "bytecode": "0x608060405234801561000f575f5ffd5b5060405161242a38038061242a83398181016040528101906100319190610266565b806040518060400160405280600981526020017f54726164657243617400000000000000000000000000000000000000000000008152506040518060400160405280600381526020017f5444430000000000000000000000000000000000000000000000000000000000815250815f90816100ac91906104ce565b5080600190816100bc91906104ce565b5050505f73ffffffffffffffffffffffffffffffffffffffff168173ffffffffffffffffffffffffffffffffffffffff160361012f575f6040517f1e4fbdf700000000000000000000000000000000000000000000000000000000815260040161012691906105ac565b60405180910390fd5b61013e8161014560201b60201c565b50506105c5565b5f60065f9054906101000a900473ffffffffffffffffffffffffffffffffffffffff1690508160065f6101000a81548173ffffffffffffffffffffffffffffffffffffffff021916908373ffffffffffffffffffffffffffffffffffffffff1602179055508173ffffffffffffffffffffffffffffffffffffffff168173ffffffffffffffffffffffffffffffffffffffff167f8be0079c531659141344cd1fd0a4f28419497f9722a3daafe3b4186f6b6457e060405160405180910390a35050565b5f5ffd5b5f73ffffffffffffffffffffffffffffffffffffffff82169050919050565b5f6102358261020c565b9050919050565b6102458161022b565b811461024f575f5ffd5b50565b5f815190506102608161023c565b92915050565b5f6020828403121561027b5761027a610208565b5b5f61028884828501610252565b91505092915050565b5f81519050919050565b7f4e487b71000000000000000000000000000000000000000000000000000000005f52604160045260245ffd5b7f4e487b71000000000000000000000000000000000000000000000000000000005f52602260045260245ffd5b5f600282049050600182168061030c57607f821691505b60208210810361031f5761031e6102c8565b5b50919050565b5f819050815f5260205f209050919050565b5f6020601f8301049050919050565b5f82821b905092915050565b5f600883026103817fffffffffffffffffffffffffffffffffffffffffffffffffffffffffffffffff82610346565b61038b8683610346565b95508019841693508086168417925050509392505050565b5f819050919050565b5f819050919050565b5f6103cf6103ca6103c5846103a3565b6103ac565b6103a3565b9050919050565b5f819050919050565b6103e8836103b5565b6103fc6103f4826103d6565b848454610352565b825550505050565b5f5f905090565b610413610404565b61041e8184846103df565b505050565b5b81811015610441576104365f8261040b565b600181019050610424565b5050565b601f8211156104865761045781610325565b61046084610337565b8101602085101561046f578190505b61048361047b85610337565b830182610423565b50505b505050565b5f82821c905092915050565b5f6104a65f198460080261048b565b1980831691505092915050565b5f6104be8383610497565b9150826002028217905092915050565b6104d782610291565b67ffffffffffffffff8111156104f0576104ef61029b565b5b6104fa82546102f5565b610505828285610445565b5f60209050601f831160018114610536575f8415610524578287015190505b61052e85826104b3565b865550610595565b601f19841661054486610325565b5f5b8281101561056b57848901518255600182019150602085019450602081019050610546565b868310156105885784890151610584601f891682610497565b8355505b6001600288020188555050505b505050505050565b6105a68161022b565b82525050565b5f6020820190506105bf5f83018461059d565b92915050565b611e58806105d25f395ff3fe608060405234801561000f575f5ffd5b5060043610610109575f3560e01c806370a08231116100a0578063a22cb4651161006f578063a22cb465146102b5578063b88d4fde146102d1578063c87b56dd146102ed578063e985e9c51461031d578063f2fde38b1461034d57610109565b806370a082311461023f578063715018a61461026f5780638da5cb5b1461027957806395d89b411461029757610109565b806323b872dd116100dc57806323b872dd146101a757806340d097c3146101c357806342842e0e146101f35780636352211e1461020f57610109565b806301ffc9a71461010d57806306fdde031461013d578063081812fc1461015b578063095ea7b31461018b575b5f5ffd5b61012760048036038101906101229190611660565b610369565b60405161013491906116a5565b60405180910390f35b61014561044a565b604051610152919061172e565b60405180910390f35b61017560048036038101906101709190611781565b6104d9565b60405161018291906117eb565b60405180910390f35b6101a560048036038101906101a0919061182e565b6104f4565b005b6101c160048036038101906101bc919061186c565b61050a565b005b6101dd60048036038101906101d891906118bc565b610609565b6040516101ea91906118f6565b60405180910390f35b61020d6004803603810190610208919061186c565b61063e565b005b61022960048036038101906102249190611781565b61065d565b60405161023691906117eb565b60405180910390f35b610259600480360381019061025491906118bc565b61066e565b60405161026691906118f6565b60405180910390f35b610277610724565b005b610281610737565b60405161028e91906117eb565b60405180910390f35b61029f61075f565b6040516102ac919061172e565b60405180910390f35b6102cf60048036038101906102ca9190611939565b6107ef565b005b6102eb60048036038101906102e69190611aa3565b610805565b005b61030760048036038101906103029190611781565b61082a565b604051610314919061172e565b60405180910390f35b61033760048036038101906103329190611b23565b61088f565b60405161034491906116a5565b60405180910390f35b610367600480360381019061036291906118bc565b61091d565b005b5f7f80ac58cd000000000000000000000000000000000000000000000000000000007bffffffffffffffffffffffffffffffffffffffffffffffffffffffff1916827bffffffffffffffffffffffffffffffffffffffffffffffffffffffff1916148061043357507f5b5e139f000000000000000000000000000000000000000000000000000000007bffffffffffffffffffffffffffffffffffffffffffffffffffffffff1916827bffffffffffffffffffffffffffffffffffffffffffffffffffffffff1916145b806104435750610442826109a1565b5b9050919050565b60605f805461045890611b8e565b80601f016020809104026020016040519081016040528092919081815260200182805461048490611b8e565b80156104cf5780601f106104a6576101008083540402835291602001916104cf565b820191905f5260205f20905b8154815290600101906020018083116104b257829003601f168201915b5050505050905090565b5f6104e382610a0a565b506104ed82610a90565b9050919050565b6105068282610501610ac9565b610ad0565b5050565b5f73ffffffffffffffffffffffffffffffffffffffff168273ffffffffffffffffffffffffffffffffffffffff160361057a575f6040517f64a0ae9200000000000000000000000000000000000000000000000000000000815260040161057191906117eb565b60405180910390fd5b5f61058d8383610588610ac9565b610ae2565b90508373ffffffffffffffffffffffffffffffffffffffff168173ffffffffffffffffffffffffffffffffffffffff1614610603578382826040517f64283d7b0000000000000000000000000000000000000000000000000000000081526004016105fa93929190611bbe565b60405180910390fd5b50505050565b5f610612610ced565b5f60075f81548092919061062590611c20565b9190505590506106358382610d74565b80915050919050565b61065883838360405180602001604052805f815250610805565b505050565b5f61066782610a0a565b9050919050565b5f5f73ffffffffffffffffffffffffffffffffffffffff168273ffffffffffffffffffffffffffffffffffffffff16036106df575f6040517f89c62b640000000000000000000000000000000000000000000000000000000081526004016106d691906117eb565b60405180910390fd5b60035f8373ffffffffffffffffffffffffffffffffffffffff1673ffffffffffffffffffffffffffffffffffffffff1681526020019081526020015f20549050919050565b61072c610ced565b6107355f610d91565b565b5f60065f9054906101000a900473ffffffffffffffffffffffffffffffffffffffff16905090565b60606001805461076e90611b8e565b80601f016020809104026020016040519081016040528092919081815260200182805461079a90611b8e565b80156107e55780601f106107bc576101008083540402835291602001916107e5565b820191905f5260205f20905b8154815290600101906020018083116107c857829003601f168201915b5050505050905090565b6108016107fa610ac9565b8383610e54565b5050565b61081084848461050a565b61082461081b610ac9565b85858585610fbd565b50505050565b60605f82101561086f576040517f08c379a000000000000000000000000000000000000000000000000000000000815260040161086690611cb1565b60405180910390fd5b604051806080016040528060518152602001611dd2605191399050919050565b5f60055f8473ffffffffffffffffffffffffffffffffffffffff1673ffffffffffffffffffffffffffffffffffffffff1681526020019081526020015f205f8373ffffffffffffffffffffffffffffffffffffffff1673ffffffffffffffffffffffffffffffffffffffff1681526020019081526020015f205f9054906101000a900460ff16905092915050565b610925610ced565b5f73ffffffffffffffffffffffffffffffffffffffff168173ffffffffffffffffffffffffffffffffffffffff1603610995575f6040517f1e4fbdf700000000000000000000000000000000000000000000000000000000815260040161098c91906117eb565b60405180910390fd5b61099e81610d91565b50565b5f7f01ffc9a7000000000000000000000000000000000000000000000000000000007bffffffffffffffffffffffffffffffffffffffffffffffffffffffff1916827bffffffffffffffffffffffffffffffffffffffffffffffffffffffff1916149050919050565b5f5f610a1583611169565b90505f73ffffffffffffffffffffffffffffffffffffffff168173ffffffffffffffffffffffffffffffffffffffff1603610a8757826040517f7e273289000000000000000000000000000000000000000000000000000000008152600401610a7e91906118f6565b60405180910390fd5b80915050919050565b5f60045f8381526020019081526020015f205f9054906101000a900473ffffffffffffffffffffffffffffffffffffffff169050919050565b5f33905090565b610add83838360016111a2565b505050565b5f5f610aed84611169565b90505f73ffffffffffffffffffffffffffffffffffffffff168373ffffffffffffffffffffffffffffffffffffffff1614610b2e57610b2d818486611361565b5b5f73ffffffffffffffffffffffffffffffffffffffff168173ffffffffffffffffffffffffffffffffffffffff1614610bb957610b6d5f855f5f6111a2565b600160035f8373ffffffffffffffffffffffffffffffffffffffff1673ffffffffffffffffffffffffffffffffffffffff1681526020019081526020015f205f82825403925050819055505b5f73ffffffffffffffffffffffffffffffffffffffff168573ffffffffffffffffffffffffffffffffffffffff1614610c3857600160035f8773ffffffffffffffffffffffffffffffffffffffff1673ffffffffffffffffffffffffffffffffffffffff1681526020019081526020015f205f82825401925050819055505b8460025f8681526020019081526020015f205f6101000a81548173ffffffffffffffffffffffffffffffffffffffff021916908373ffffffffffffffffffffffffffffffffffffffff160217905550838573ffffffffffffffffffffffffffffffffffffffff168273ffffffffffffffffffffffffffffffffffffffff167fddf252ad1be2c89b69c2b068fc378daa952ba7f163c4a11628f55a4df523b3ef60405160405180910390a4809150509392505050565b610cf5610ac9565b73ffffffffffffffffffffffffffffffffffffffff16610d13610737565b73ffffffffffffffffffffffffffffffffffffffff1614610d7257610d36610ac9565b6040517f118cdaa7000000000000000000000000000000000000000000000000000000008152600401610d6991906117eb565b60405180910390fd5b565b610d8d828260405180602001604052805f815250611424565b5050565b5f60065f9054906101000a900473ffffffffffffffffffffffffffffffffffffffff1690508160065f6101000a81548173ffffffffffffffffffffffffffffffffffffffff021916908373ffffffffffffffffffffffffffffffffffffffff1602179055508173ffffffffffffffffffffffffffffffffffffffff168173ffffffffffffffffffffffffffffffffffffffff167f8be0079c531659141344cd1fd0a4f28419497f9722a3daafe3b4186f6b6457e060405160405180910390a35050565b5f73ffffffffffffffffffffffffffffffffffffffff168273ffffffffffffffffffffffffffffffffffffffff1603610ec457816040517f5b08ba18000000000000000000000000000000000000000000000000000000008152600401610ebb91906117eb565b60405180910390fd5b8060055f8573ffffffffffffffffffffffffffffffffffffffff1673ffffffffffffffffffffffffffffffffffffffff1681526020019081526020015f205f8473ffffffffffffffffffffffffffffffffffffffff1673ffffffffffffffffffffffffffffffffffffffff1681526020019081526020015f205f6101000a81548160ff0219169083151502179055508173ffffffffffffffffffffffffffffffffffffffff168373ffffffffffffffffffffffffffffffffffffffff167f17307eab39ab6107e8899845ad3d59bd9653f200f220920489ca2b5937696c3183604051610fb091906116a5565b60405180910390a3505050565b5f8373ffffffffffffffffffffffffffffffffffffffff163b1115611162578273ffffffffffffffffffffffffffffffffffffffff1663150b7a02868685856040518563ffffffff1660e01b815260040161101b9493929190611d21565b6020604051808303815f875af192505050801561105657506040513d601f19601f820116820180604052508101906110539190611d7f565b60015b6110d7573d805f8114611084576040519150601f19603f3d011682016040523d82523d5f602084013e611089565b606091505b505f8151036110cf57836040517f64a0ae920000000000000000000000000000000000000000000000000000000081526004016110c691906117eb565b60405180910390fd5b805160208201fd5b63150b7a0260e01b7bffffffffffffffffffffffffffffffffffffffffffffffffffffffff1916817bffffffffffffffffffffffffffffffffffffffffffffffffffffffff19161461116057836040517f64a0ae9200000000000000000000000000000000000000000000000000000000815260040161115791906117eb565b60405180910390fd5b505b5050505050565b5f60025f8381526020019081526020015f205f9054906101000a900473ffffffffffffffffffffffffffffffffffffffff169050919050565b80806111da57505f73ffffffffffffffffffffffffffffffffffffffff168273ffffffffffffffffffffffffffffffffffffffff1614155b1561130c575f6111e984610a0a565b90505f73ffffffffffffffffffffffffffffffffffffffff168373ffffffffffffffffffffffffffffffffffffffff161415801561125357508273ffffffffffffffffffffffffffffffffffffffff168173ffffffffffffffffffffffffffffffffffffffff1614155b80156112665750611264818461088f565b155b156112a857826040517fa9fbf51f00000000000000000000000000000000000000000000000000000000815260040161129f91906117eb565b60405180910390fd5b811561130a57838573ffffffffffffffffffffffffffffffffffffffff168273ffffffffffffffffffffffffffffffffffffffff167f8c5be1e5ebec7d5bd14f71427d1e84f3dd0314c0f7b2291e5b200ac8c7c3b92560405160405180910390a45b505b8360045f8581526020019081526020015f205f6101000a81548173ffffffffffffffffffffffffffffffffffffffff021916908373ffffffffffffffffffffffffffffffffffffffff16021790555050505050565b61136c838383611447565b61141f575f73ffffffffffffffffffffffffffffffffffffffff168373ffffffffffffffffffffffffffffffffffffffff16036113e057806040517f7e2732890000000000000000000000000000000000000000000000000000000081526004016113d791906118f6565b60405180910390fd5b81816040517f177e802f000000000000000000000000000000000000000000000000000000008152600401611416929190611daa565b60405180910390fd5b505050565b61142e8383611507565b611442611439610ac9565b5f858585610fbd565b505050565b5f5f73ffffffffffffffffffffffffffffffffffffffff168373ffffffffffffffffffffffffffffffffffffffff16141580156114fe57508273ffffffffffffffffffffffffffffffffffffffff168473ffffffffffffffffffffffffffffffffffffffff1614806114bf57506114be848461088f565b5b806114fd57508273ffffffffffffffffffffffffffffffffffffffff166114e583610a90565b73ffffffffffffffffffffffffffffffffffffffff16145b5b90509392505050565b5f73ffffffffffffffffffffffffffffffffffffffff168273ffffffffffffffffffffffffffffffffffffffff1603611577575f6040517f64a0ae9200000000000000000000000000000000000000000000000000000000815260040161156e91906117eb565b60405180910390fd5b5f61158383835f610ae2565b90505f73ffffffffffffffffffffffffffffffffffffffff168173ffffffffffffffffffffffffffffffffffffffff16146115f5575f6040517f73c6ac6e0000000000000000000000000000000000000000000000000000000081526004016115ec91906117eb565b60405180910390fd5b505050565b5f604051905090565b5f5ffd5b5f5ffd5b5f7fffffffff0000000000000000000000000000000000000000000000000000000082169050919050565b61163f8161160b565b8114611649575f5ffd5b50565b5f8135905061165a81611636565b92915050565b5f6020828403121561167557611674611603565b5b5f6116828482850161164c565b91505092915050565b5f8115159050919050565b61169f8161168b565b82525050565b5f6020820190506116b85f830184611696565b92915050565b5f81519050919050565b5f82825260208201905092915050565b8281835e5f83830152505050565b5f601f19601f8301169050919050565b5f611700826116be565b61170a81856116c8565b935061171a8185602086016116d8565b611723816116e6565b840191505092915050565b5f6020820190508181035f83015261174681846116f6565b905092915050565b5f819050919050565b6117608161174e565b811461176a575f5ffd5b50565b5f8135905061177b81611757565b92915050565b5f6020828403121561179657611795611603565b5b5f6117a38482850161176d565b91505092915050565b5f73ffffffffffffffffffffffffffffffffffffffff82169050919050565b5f6117d5826117ac565b9050919050565b6117e5816117cb565b82525050565b5f6020820190506117fe5f8301846117dc565b92915050565b61180d816117cb565b8114611817575f5ffd5b50565b5f8135905061182881611804565b92915050565b5f5f6040838503121561184457611843611603565b5b5f6118518582860161181a565b92505060206118628582860161176d565b9150509250929050565b5f5f5f6060848603121561188357611882611603565b5b5f6118908682870161181a565b93505060206118a18682870161181a565b92505060406118b28682870161176d565b9150509250925092565b5f602082840312156118d1576118d0611603565b5b5f6118de8482850161181a565b91505092915050565b6118f08161174e565b82525050565b5f6020820190506119095f8301846118e7565b92915050565b6119188161168b565b8114611922575f5ffd5b50565b5f813590506119338161190f565b92915050565b5f5f6040838503121561194f5761194e611603565b5b5f61195c8582860161181a565b925050602061196d85828601611925565b9150509250929050565b5f5ffd5b5f5ffd5b7f4e487b71000000000000000000000000000000000000000000000000000000005f52604160045260245ffd5b6119b5826116e6565b810181811067ffffffffffffffff821117156119d4576119d361197f565b5b80604052505050565b5f6119e66115fa565b90506119f282826119ac565b919050565b5f67ffffffffffffffff821115611a1157611a1061197f565b5b611a1a826116e6565b9050602081019050919050565b828183375f83830152505050565b5f611a47611a42846119f7565b6119dd565b905082815260208101848484011115611a6357611a6261197b565b5b611a6e848285611a27565b509392505050565b5f82601f830112611a8a57611a89611977565b5b8135611a9a848260208601611a35565b91505092915050565b5f5f5f5f60808587031215611abb57611aba611603565b5b5f611ac88782880161181a565b9450506020611ad98782880161181a565b9350506040611aea8782880161176d565b925050606085013567ffffffffffffffff811115611b0b57611b0a611607565b5b611b1787828801611a76565b91505092959194509250565b5f5f60408385031215611b3957611b38611603565b5b5f611b468582860161181a565b9250506020611b578582860161181a565b9150509250929050565b7f4e487b71000000000000000000000000000000000000000000000000000000005f52602260045260245ffd5b5f6002820490506001821680611ba557607f821691505b602082108103611bb857611bb7611b61565b5b50919050565b5f606082019050611bd15f8301866117dc565b611bde60208301856118e7565b611beb60408301846117dc565b949350505050565b7f4e487b71000000000000000000000000000000000000000000000000000000005f52601160045260245ffd5b5f611c2a8261174e565b91507fffffffffffffffffffffffffffffffffffffffffffffffffffffffffffffffff8203611c5c57611c5b611bf3565b5b600182019050919050565b7f546f6b656e20646f6573206e6f742065786973740000000000000000000000005f82015250565b5f611c9b6014836116c8565b9150611ca682611c67565b602082019050919050565b5f6020820190508181035f830152611cc881611c8f565b9050919050565b5f81519050919050565b5f82825260208201905092915050565b5f611cf382611ccf565b611cfd8185611cd9565b9350611d0d8185602086016116d8565b611d16816116e6565b840191505092915050565b5f608082019050611d345f8301876117dc565b611d4160208301866117dc565b611d4e60408301856118e7565b8181036060830152611d608184611ce9565b905095945050505050565b5f81519050611d7981611636565b92915050565b5f60208284031215611d9457611d93611603565b5b5f611da184828501611d6b565b91505092915050565b5f604082019050611dbd5f8301856117dc565b611dca60208301846118e7565b939250505056fe68747470733a2f2f7261772e67697468756275736572636f6e74656e742e636f6d2f7a782d6c696e2d73732f7472616465722d6361742d6e66742f6d61696e2f7472616465725f6361745f312e6a736f6ea2646970667358221220befd9b6f02e9e3b646e627d8de037e788926a91d31004aeb90686440c51fa1a464736f6c634300081b0033",
  "immutableReferences": {},
  "source": "// SPDX-License-Identifier: MIT\n// Compatible with OpenZeppelin Contracts ^5.4.0\npragma solidity ^0.8.27;\n\nimport {ERC721} from \"@openzeppelin/contracts/token/ERC721/ERC721.sol\";\nimport {Ownable} from \"@openzeppelin/contracts/access/Ownable.sol\";\n\ncontract TraderCat is ERC721, Ownable {\n    uint256 private _nextTokenId;\n\n    // Metadata JSON file (not raw PNG!)\n    string private constant TOKEN_URI = \"https://raw.githubusercontent.com/zx-lin-ss/trader-cat-nft/main/trader_cat_1.json\";\n\n    constructor(address initialOwner)\n        ERC721(\"TraderCat\", \"TDC\")\n        Ownable(initialOwner)\n    {}\n\n    function safeMint(address to) public onlyOwner returns (uint256) {\n        uint256 tokenId = _nextTokenId++;\n        _safeMint(to, tokenId);\n        return tokenId;\n    }\n\n    // All tokens share the same metadata.json\n    function tokenURI(uint256 tokenId)\n        public\n        pure\n        override\n        returns (string memory)\n    {\n        require(tokenId >= 0, \"Token does not exist\");\n        return TOKEN_URI;\n    }\n}",
  "sourcePath": "/Users/zixianl/nft-project/truffle/contracts/Tradercat.sol",
  "compiler": {
    "name": "solc",
    "version": "0.8.27+commit.40a35a09.Emscripten.clang"
  },
  "schemaVersion": "3.4.16",
  "updatedAt": "2025-09-21T01:27:36.686Z",
  "networkType": "ethereum",
  "devdoc": {
    "errors": {
      "ERC721IncorrectOwner(address,uint256,address)": [
        {
          "details": "Indicates an error related to the ownership over a particular token. Used in transfers.",
          "params": {
            "owner": "Address of the current owner of a token.",
            "sender": "Address whose tokens are being transferred.",
            "tokenId": "Identifier number of a token."
          }
        }
      ],
      "ERC721InsufficientApproval(address,uint256)": [
        {
          "details": "Indicates a failure with the `operator`s approval. Used in transfers.",
          "params": {
            "operator": "Address that may be allowed to operate on tokens without being their owner.",
            "tokenId": "Identifier number of a token."
          }
        }
      ],
      "ERC721InvalidApprover(address)": [
        {
          "details": "Indicates a failure with the `approver` of a token to be approved. Used in approvals.",
          "params": {
            "approver": "Address initiating an approval operation."
          }
        }
      ],
      "ERC721InvalidOperator(address)": [
        {
          "details": "Indicates a failure with the `operator` to be approved. Used in approvals.",
          "params": {
            "operator": "Address that may be allowed to operate on tokens without being their owner."
          }
        }
      ],
      "ERC721InvalidOwner(address)": [
        {
          "details": "Indicates that an address can't be an owner. For example, `address(0)` is a forbidden owner in ERC-20. Used in balance queries.",
          "params": {
            "owner": "Address of the current owner of a token."
          }
        }
      ],
      "ERC721InvalidReceiver(address)": [
        {
          "details": "Indicates a failure with the token `receiver`. Used in transfers.",
          "params": {
            "receiver": "Address to which tokens are being transferred."
          }
        }
      ],
      "ERC721InvalidSender(address)": [
        {
          "details": "Indicates a failure with the token `sender`. Used in transfers.",
          "params": {
            "sender": "Address whose tokens are being transferred."
          }
        }
      ],
      "ERC721NonexistentToken(uint256)": [
        {
          "details": "Indicates a `tokenId` whose `owner` is the zero address.",
          "params": {
            "tokenId": "Identifier number of a token."
          }
        }
      ],
      "OwnableInvalidOwner(address)": [
        {
          "details": "The owner is not a valid owner account. (eg. `address(0)`)"
        }
      ],
      "OwnableUnauthorizedAccount(address)": [
        {
          "details": "The caller account is not authorized to perform an operation."
        }
      ]
    },
    "events": {
      "Approval(address,address,uint256)": {
        "details": "Emitted when `owner` enables `approved` to manage the `tokenId` token."
      },
      "ApprovalForAll(address,address,bool)": {
        "details": "Emitted when `owner` enables or disables (`approved`) `operator` to manage all of its assets."
      },
      "Transfer(address,address,uint256)": {
        "details": "Emitted when `tokenId` token is transferred from `from` to `to`."
      }
    },
    "kind": "dev",
    "methods": {
      "approve(address,uint256)": {
        "details": "Gives permission to `to` to transfer `tokenId` token to another account. The approval is cleared when the token is transferred. Only a single account can be approved at a time, so approving the zero address clears previous approvals. Requirements: - The caller must own the token or be an approved operator. - `tokenId` must exist. Emits an {Approval} event."
      },
      "balanceOf(address)": {
        "details": "Returns the number of tokens in ``owner``'s account."
      },
      "getApproved(uint256)": {
        "details": "Returns the account approved for `tokenId` token. Requirements: - `tokenId` must exist."
      },
      "isApprovedForAll(address,address)": {
        "details": "Returns if the `operator` is allowed to manage all of the assets of `owner`. See {setApprovalForAll}"
      },
      "name()": {
        "details": "Returns the token collection name."
      },
      "owner()": {
        "details": "Returns the address of the current owner."
      },
      "ownerOf(uint256)": {
        "details": "Returns the owner of the `tokenId` token. Requirements: - `tokenId` must exist."
      },
      "renounceOwnership()": {
        "details": "Leaves the contract without owner. It will not be possible to call `onlyOwner` functions. Can only be called by the current owner. NOTE: Renouncing ownership will leave the contract without an owner, thereby disabling any functionality that is only available to the owner."
      },
      "safeTransferFrom(address,address,uint256)": {
        "details": "Safely transfers `tokenId` token from `from` to `to`, checking first that contract recipients are aware of the ERC-721 protocol to prevent tokens from being forever locked. Requirements: - `from` cannot be the zero address. - `to` cannot be the zero address. - `tokenId` token must exist and be owned by `from`. - If the caller is not `from`, it must have been allowed to move this token by either {approve} or   {setApprovalForAll}. - If `to` refers to a smart contract, it must implement {IERC721Receiver-onERC721Received}, which is called upon   a safe transfer. Emits a {Transfer} event."
      },
      "safeTransferFrom(address,address,uint256,bytes)": {
        "details": "Safely transfers `tokenId` token from `from` to `to`. Requirements: - `from` cannot be the zero address. - `to` cannot be the zero address. - `tokenId` token must exist and be owned by `from`. - If the caller is not `from`, it must be approved to move this token by either {approve} or {setApprovalForAll}. - If `to` refers to a smart contract, it must implement {IERC721Receiver-onERC721Received}, which is called upon   a safe transfer. Emits a {Transfer} event."
      },
      "setApprovalForAll(address,bool)": {
        "details": "Approve or remove `operator` as an operator for the caller. Operators can call {transferFrom} or {safeTransferFrom} for any token owned by the caller. Requirements: - The `operator` cannot be the address zero. Emits an {ApprovalForAll} event."
      },
      "supportsInterface(bytes4)": {
        "details": "Returns true if this contract implements the interface defined by `interfaceId`. See the corresponding https://eips.ethereum.org/EIPS/eip-165#how-interfaces-are-identified[ERC section] to learn more about how these ids are created. This function call must use less than 30 000 gas."
      },
      "symbol()": {
        "details": "Returns the token collection symbol."
      },
      "tokenURI(uint256)": {
        "details": "Returns the Uniform Resource Identifier (URI) for `tokenId` token."
      },
      "transferFrom(address,address,uint256)": {
        "details": "Transfers `tokenId` token from `from` to `to`. WARNING: Note that the caller is responsible to confirm that the recipient is capable of receiving ERC-721 or else they may be permanently lost. Usage of {safeTransferFrom} prevents loss, though the caller must understand this adds an external call which potentially creates a reentrancy vulnerability. Requirements: - `from` cannot be the zero address. - `to` cannot be the zero address. - `tokenId` token must be owned by `from`. - If the caller is not `from`, it must be approved to move this token by either {approve} or {setApprovalForAll}. Emits a {Transfer} event."
      },
      "transferOwnership(address)": {
        "details": "Transfers ownership of the contract to a new account (`newOwner`). Can only be called by the current owner."
      }
    },
    "version": 1
  },
  "userdoc": {
    "kind": "user",
    "methods": {},
    "version": 1
  }
}